{
  "contractName": "SimpleUnique",
  "abi": [
    {
      "inputs": [
        {
          "internalType": "string",
          "name": "_name",
          "type": "string"
        },
        {
          "internalType": "string",
          "name": "_symbol",
          "type": "string"
        }
      ],
      "payable": false,
      "stateMutability": "nonpayable",
      "type": "constructor"
    },
    {
      "anonymous": false,
      "inputs": [
        {
          "indexed": true,
          "internalType": "address",
          "name": "_owner",
          "type": "address"
        },
        {
          "indexed": true,
          "internalType": "address",
          "name": "_approved",
          "type": "address"
        },
        {
          "indexed": false,
          "internalType": "uint256",
          "name": "_tokenId",
          "type": "uint256"
        }
      ],
      "name": "Approval",
      "type": "event"
    },
    {
      "anonymous": false,
      "inputs": [
        {
          "indexed": true,
          "internalType": "address",
          "name": "_from",
          "type": "address"
        },
        {
          "indexed": true,
          "internalType": "address",
          "name": "_to",
          "type": "address"
        },
        {
          "indexed": false,
          "internalType": "uint256",
          "name": "_tokenId",
          "type": "uint256"
        }
      ],
      "name": "Transfer",
      "type": "event"
    },
    {
      "constant": true,
      "inputs": [],
      "name": "name",
      "outputs": [
        {
          "internalType": "string",
          "name": "",
          "type": "string"
        }
      ],
      "payable": false,
      "stateMutability": "view",
      "type": "function"
    },
    {
      "constant": true,
      "inputs": [],
      "name": "symbol",
      "outputs": [
        {
          "internalType": "string",
          "name": "",
          "type": "string"
        }
      ],
      "payable": false,
      "stateMutability": "view",
      "type": "function"
    },
    {
      "constant": true,
      "inputs": [],
      "name": "totalSupply",
      "outputs": [
        {
          "internalType": "uint256",
          "name": "",
          "type": "uint256"
        }
      ],
      "payable": false,
      "stateMutability": "view",
      "type": "function"
    },
    {
      "constant": true,
      "inputs": [
        {
          "internalType": "address",
          "name": "_owner",
          "type": "address"
        }
      ],
      "name": "balanceOf",
      "outputs": [
        {
          "internalType": "uint256",
          "name": "",
          "type": "uint256"
        }
      ],
      "payable": false,
      "stateMutability": "view",
      "type": "function"
    },
    {
      "constant": true,
      "inputs": [
        {
          "internalType": "uint256",
          "name": "_tokenId",
          "type": "uint256"
        }
      ],
      "name": "ownerOf",
      "outputs": [
        {
          "internalType": "address",
          "name": "",
          "type": "address"
        }
      ],
      "payable": false,
      "stateMutability": "view",
      "type": "function"
    },
    {
      "constant": true,
      "inputs": [
        {
          "internalType": "address",
          "name": "_owner",
          "type": "address"
        },
        {
          "internalType": "uint256",
          "name": "_idx",
          "type": "uint256"
        }
      ],
      "name": "tokenOfOwnerByIndex",
      "outputs": [
        {
          "internalType": "uint256",
          "name": "",
          "type": "uint256"
        }
      ],
      "payable": false,
      "stateMutability": "view",
      "type": "function"
    },
    {
      "constant": false,
      "inputs": [
        {
          "internalType": "uint256",
          "name": "_tokenId",
          "type": "uint256"
        },
        {
          "internalType": "string",
          "name": "_metaData",
          "type": "string"
        }
      ],
      "name": "mintToken",
      "outputs": [],
      "payable": false,
      "stateMutability": "nonpayable",
      "type": "function"
    },
    {
      "constant": false,
      "inputs": [
        {
          "internalType": "address",
          "name": "_to",
          "type": "address"
        },
        {
          "internalType": "uint256",
          "name": "_tokenId",
          "type": "uint256"
        }
      ],
      "name": "transfer",
      "outputs": [],
      "payable": false,
      "stateMutability": "nonpayable",
      "type": "function"
    },
    {
      "constant": false,
      "inputs": [
        {
          "internalType": "address",
          "name": "_to",
          "type": "address"
        },
        {
          "internalType": "uint256",
          "name": "_tokenId",
          "type": "uint256"
        }
      ],
      "name": "approve",
      "outputs": [],
      "payable": false,
      "stateMutability": "nonpayable",
      "type": "function"
    },
    {
      "constant": false,
      "inputs": [
        {
          "internalType": "uint256",
          "name": "_tokenId",
          "type": "uint256"
        }
      ],
      "name": "takeOwnership",
      "outputs": [],
      "payable": false,
      "stateMutability": "nonpayable",
      "type": "function"
    },
    {
      "constant": true,
      "inputs": [
        {
          "internalType": "uint256",
          "name": "_tokenId",
          "type": "uint256"
        }
      ],
      "name": "tokenMetadata",
      "outputs": [
        {
          "internalType": "string",
          "name": "",
          "type": "string"
        }
      ],
      "payable": false,
      "stateMutability": "view",
      "type": "function"
    }
  ],
  "bytecode": "0x60806040523480156200001157600080fd5b506040516200164038038062001640833981810160405260408110156200003757600080fd5b81019080805160405193929190846401000000008211156200005857600080fd5b838201915060208201858111156200006f57600080fd5b82518660018202830111640100000000821117156200008d57600080fd5b8083526020830192505050908051906020019080838360005b83811015620000c3578082015181840152602081019050620000a6565b50505050905090810190601f168015620000f15780820380516001836020036101000a031916815260200191505b50604052602001805160405193929190846401000000008211156200011557600080fd5b838201915060208201858111156200012c57600080fd5b82518660018202830111640100000000821117156200014a57600080fd5b8083526020830192505050908051906020019080838360005b838110156200018057808201518184015260208101905062000163565b50505050905090810190601f168015620001ae5780820380516001836020036101000a031916815260200191505b50604052505050336000806101000a81548173ffffffffffffffffffffffffffffffffffffffff021916908373ffffffffffffffffffffffffffffffffffffffff160217905550600060018190555081600290805190602001906200021592919062000237565b5080600390805190602001906200022e92919062000237565b505050620002e6565b828054600181600116156101000203166002900490600052602060002090601f016020900481019282601f106200027a57805160ff1916838001178555620002ab565b82800160010185558215620002ab579182015b82811115620002aa5782518255916020019190600101906200028d565b5b509050620002ba9190620002be565b5090565b620002e391905b80821115620002df576000816000905550600101620002c5565b5090565b90565b61134a80620002f66000396000f3fe608060405234801561001057600080fd5b50600436106100a95760003560e01c80636914db60116100715780636914db601461026d57806370a0823114610314578063752312a91461036c57806395d89b4114610431578063a9059cbb146104b4578063b2e6ceeb14610502576100a9565b806306fdde03146100ae578063095ea7b31461013157806318160ddd1461017f5780632f745c591461019d5780636352211e146101ff575b600080fd5b6100b6610530565b6040518080602001828103825283818151815260200191508051906020019080838360005b838110156100f65780820151818401526020810190506100db565b50505050905090810190601f1680156101235780820380516001836020036101000a031916815260200191505b509250505060405180910390f35b61017d6004803603604081101561014757600080fd5b81019080803573ffffffffffffffffffffffffffffffffffffffff169060200190929190803590602001909291905050506105d2565b005b610187610735565b6040518082815260200191505060405180910390f35b6101e9600480360360408110156101b357600080fd5b81019080803573ffffffffffffffffffffffffffffffffffffffff1690602001909291908035906020019092919050505061073f565b6040518082815260200191505060405180910390f35b61022b6004803603602081101561021557600080fd5b810190808035906020019092919050505061079e565b604051808273ffffffffffffffffffffffffffffffffffffffff1673ffffffffffffffffffffffffffffffffffffffff16815260200191505060405180910390f35b6102996004803603602081101561028357600080fd5b8101908080359060200190929190505050610847565b6040518080602001828103825283818151815260200191508051906020019080838360005b838110156102d95780820151818401526020810190506102be565b50505050905090810190601f1680156103065780820380516001836020036101000a031916815260200191505b509250505060405180910390f35b6103566004803603602081101561032a57600080fd5b81019080803573ffffffffffffffffffffffffffffffffffffffff1690602001909291905050506108fc565b6040518082815260200191505060405180910390f35b61042f6004803603604081101561038257600080fd5b8101908080359060200190929190803590602001906401000000008111156103a957600080fd5b8201836020820111156103bb57600080fd5b803590602001918460018302840111640100000000831117156103dd57600080fd5b91908080601f016020809104026020016040519081016040528093929190818152602001838380828437600081840152601f19601f820116905080830192505050505050509192919290505050610948565b005b610439610b55565b6040518080602001828103825283818151815260200191508051906020019080838360005b8381101561047957808201518184015260208101905061045e565b50505050905090810190601f1680156104a65780820380516001836020036101000a031916815260200191505b509250505060405180910390f35b610500600480360360408110156104ca57600080fd5b81019080803573ffffffffffffffffffffffffffffffffffffffff16906020019092919080359060200190929190505050610bf7565b005b61052e6004803603602081101561051857600080fd5b8101908080359060200190929190505050610cfa565b005b606060028054600181600116156101000203166002900480601f0160208091040260200160405190810160405280929190818152602001828054600181600116156101000203166002900480156105c85780601f1061059d576101008083540402835291602001916105c8565b820191906000526020600020905b8154815290600101906020018083116105ab57829003601f168201915b5050505050905090565b6105db8161079e565b73ffffffffffffffffffffffffffffffffffffffff163373ffffffffffffffffffffffffffffffffffffffff161461061257600080fd5b8173ffffffffffffffffffffffffffffffffffffffff163373ffffffffffffffffffffffffffffffffffffffff16141561064b57600080fd5b80600660003373ffffffffffffffffffffffffffffffffffffffff1673ffffffffffffffffffffffffffffffffffffffff16815260200190815260200160002060008473ffffffffffffffffffffffffffffffffffffffff1673ffffffffffffffffffffffffffffffffffffffff168152602001908152602001600020819055508173ffffffffffffffffffffffffffffffffffffffff163373ffffffffffffffffffffffffffffffffffffffff167f8c5be1e5ebec7d5bd14f71427d1e84f3dd0314c0f7b2291e5b200ac8c7c3b925836040518082815260200191505060405180910390a35050565b6000600154905090565b6000600460008473ffffffffffffffffffffffffffffffffffffffff1673ffffffffffffffffffffffffffffffffffffffff168152602001908152602001600020828154811061078b57fe5b9060005260206000200154905092915050565b60008073ffffffffffffffffffffffffffffffffffffffff166005600084815260200190815260200160002060009054906101000a900473ffffffffffffffffffffffffffffffffffffffff1673ffffffffffffffffffffffffffffffffffffffff16141561080c57600080fd5b6005600083815260200190815260200160002060009054906101000a900473ffffffffffffffffffffffffffffffffffffffff169050919050565b6060600760008381526020019081526020016000208054600181600116156101000203166002900480601f0160208091040260200160405190810160405280929190818152602001828054600181600116156101000203166002900480156108f05780601f106108c5576101008083540402835291602001916108f0565b820191906000526020600020905b8154815290600101906020018083116108d357829003601f168201915b50505050509050919050565b6000600460008373ffffffffffffffffffffffffffffffffffffffff1673ffffffffffffffffffffffffffffffffffffffff168152602001908152602001600020805490509050919050565b6000809054906101000a900473ffffffffffffffffffffffffffffffffffffffff1673ffffffffffffffffffffffffffffffffffffffff163373ffffffffffffffffffffffffffffffffffffffff16146109a157600080fd5b600082116109ae57600080fd5b600073ffffffffffffffffffffffffffffffffffffffff166005600084815260200190815260200160002060009054906101000a900473ffffffffffffffffffffffffffffffffffffffff1673ffffffffffffffffffffffffffffffffffffffff1614610a1a57600080fd5b600460008060009054906101000a900473ffffffffffffffffffffffffffffffffffffffff1673ffffffffffffffffffffffffffffffffffffffff1673ffffffffffffffffffffffffffffffffffffffff1681526020019081526020016000208290806001815401808255809150509060018203906000526020600020016000909192909190915055506000809054906101000a900473ffffffffffffffffffffffffffffffffffffffff166005600084815260200190815260200160002060006101000a81548173ffffffffffffffffffffffffffffffffffffffff021916908373ffffffffffffffffffffffffffffffffffffffff16021790555060016000815480929190600101919050555080600760008481526020019081526020016000209080519060200190610b50929190611244565b505050565b606060038054600181600116156101000203166002900480601f016020809104026020016040519081016040528092919081815260200182805460018160011615610100020316600290048015610bed5780601f10610bc257610100808354040283529160200191610bed565b820191906000526020600020905b815481529060010190602001808311610bd057829003601f168201915b5050505050905090565b60003390506000839050600073ffffffffffffffffffffffffffffffffffffffff166005600085815260200190815260200160002060009054906101000a900473ffffffffffffffffffffffffffffffffffffffff1673ffffffffffffffffffffffffffffffffffffffff161415610c6e57600080fd5b610c778361079e565b73ffffffffffffffffffffffffffffffffffffffff168173ffffffffffffffffffffffffffffffffffffffff161415610caf57600080fd5b600073ffffffffffffffffffffffffffffffffffffffff168173ffffffffffffffffffffffffffffffffffffffff161415610ce957600080fd5b610cf4828285610ddd565b50505050565b6000610d058261079e565b905060003390508173ffffffffffffffffffffffffffffffffffffffff168173ffffffffffffffffffffffffffffffffffffffff161415610d4557600080fd5b82600660008473ffffffffffffffffffffffffffffffffffffffff1673ffffffffffffffffffffffffffffffffffffffff16815260200190815260200160002060008373ffffffffffffffffffffffffffffffffffffffff1673ffffffffffffffffffffffffffffffffffffffff1681526020019081526020016000205414610dcd57600080fd5b610dd8828285610ddd565b505050565b6000610de98483611114565b905060006001600460008773ffffffffffffffffffffffffffffffffffffffff1673ffffffffffffffffffffffffffffffffffffffff1681526020019081526020016000208054905003905082600460008773ffffffffffffffffffffffffffffffffffffffff1673ffffffffffffffffffffffffffffffffffffffff1681526020019081526020016000208381548110610e8057fe5b906000526020600020015414610e9557600080fd5b600460008673ffffffffffffffffffffffffffffffffffffffff1673ffffffffffffffffffffffffffffffffffffffff1681526020019081526020016000208181548110610edf57fe5b9060005260206000200154600460008773ffffffffffffffffffffffffffffffffffffffff1673ffffffffffffffffffffffffffffffffffffffff1681526020019081526020016000208381548110610f3457fe5b9060005260206000200181905550600460008673ffffffffffffffffffffffffffffffffffffffff1673ffffffffffffffffffffffffffffffffffffffff1681526020019081526020016000208181548110610f8c57fe5b9060005260206000200160009055600460008673ffffffffffffffffffffffffffffffffffffffff1673ffffffffffffffffffffffffffffffffffffffff168152602001908152602001600020805480919060019003610fec91906112c4565b50600460008573ffffffffffffffffffffffffffffffffffffffff1673ffffffffffffffffffffffffffffffffffffffff168152602001908152602001600020839080600181540180825580915050906001820390600052602060002001600090919290919091505550836005600085815260200190815260200160002060006101000a81548173ffffffffffffffffffffffffffffffffffffffff021916908373ffffffffffffffffffffffffffffffffffffffff1602179055508373ffffffffffffffffffffffffffffffffffffffff168573ffffffffffffffffffffffffffffffffffffffff167fddf252ad1be2c89b69c2b068fc378daa952ba7f163c4a11628f55a4df523b3ef856040518082815260200191505060405180910390a35050505050565b600080600090505b600460008573ffffffffffffffffffffffffffffffffffffffff1673ffffffffffffffffffffffffffffffffffffffff16815260200190815260200160002080549050811080156111c1575082600460008673ffffffffffffffffffffffffffffffffffffffff1673ffffffffffffffffffffffffffffffffffffffff16815260200190815260200160002082815481106111b357fe5b906000526020600020015414155b156111d357808060010191505061111c565b82600460008673ffffffffffffffffffffffffffffffffffffffff1673ffffffffffffffffffffffffffffffffffffffff168152602001908152602001600020828154811061121e57fe5b90600052602060002001541415611238578091505061123e565b60009150505b92915050565b828054600181600116156101000203166002900490600052602060002090601f016020900481019282601f1061128557805160ff19168380011785556112b3565b828001600101855582156112b3579182015b828111156112b2578251825591602001919060010190611297565b5b5090506112c091906112f0565b5090565b8154818355818111156112eb578183600052602060002091820191016112ea91906112f0565b5b505050565b61131291905b8082111561130e5760008160009055506001016112f6565b5090565b9056fea265627a7a7231582016dbb3cfb152ab0c989a5e10df69f2b96d13beb466ff8ba401d1804e9c0a3fb164736f6c63430005100032",
  "source": "pragma solidity ^0.5.0;\n\n/*\n*    Simple Example of an unique non fungible ERC-721 token\n*    https://medium.com/crypto-currently/the-anatomy-of-erc721-e9db77abfc24\n*/\n\n\ncontract SimpleUnique {\n    address owner;\n    uint256 totalTokens;\n    string nameToken;\n    string symbolToken;\n    mapping( address => uint256[] ) private tokensPerOwner;\n    mapping( uint256 => address ) private whoHastoken;                          /* wer hat das Token x ? */\n    mapping( address => mapping ( address => uint256 )) private allowed;        /* darf sich das Token holen */\n    mapping( uint256 => string ) private metaData;\n\n    constructor(string memory _name, string memory _symbol) public {\n        owner = msg.sender;\n        totalTokens = 0;\n        nameToken = _name;\n        symbolToken = _symbol;\n    }\n\n    // --- Description ---\n    function name() public view returns (string memory) {\n        return nameToken;\n    }\n\n    function symbol() public view returns (string memory) {\n        return symbolToken;\n    }\n\n    function totalSupply() public view returns (uint256) {\n        return totalTokens;\n    }\n\n\n    // --- My Tokens ---\n    function balanceOf(address _owner) public view returns (uint) {\n        return tokensPerOwner[_owner].length;\n    }\n\n\n    // --- Who has a particular token ---\n    function ownerOf(uint256 _tokenId) public view returns (address) {\n        require(whoHastoken[_tokenId] != address(0));\n\n        return whoHastoken[_tokenId];\n    }\n\n    function tokenOfOwnerByIndex(address _owner, uint256 _idx) public view returns (uint256) {\n      return tokensPerOwner[_owner][_idx];\n    }\n\n\n    // --- Mint Token ---\n    function mintToken(uint256 _tokenId, string memory _metaData) public {\n        require( msg.sender == owner );\n        require( _tokenId > 0 );\n        require( whoHastoken[_tokenId] == address(0) );\n\n        tokensPerOwner[owner].push(_tokenId);\n        whoHastoken[_tokenId] = owner;\n        totalTokens++;\n\n        metaData[_tokenId] = _metaData;\n    }\n\n\n    // --- search token in owner's list ---\n    function _searchToken( address _owner, uint256 _tokenId ) private view returns (uint256) {\n        uint256 n = 0;\n        while (n < tokensPerOwner[_owner].length && tokensPerOwner[_owner][n] != _tokenId) {\n          n++;\n        }\n        if ( tokensPerOwner[_owner][n] == _tokenId ) {\n          return n;  // --- gefunden  ---\n        }\n        else {\n          return 0; // nicht gefunden\n        }\n    }\n\n    // --- Ownership Transfer ---\n    function _transfer( address _from, address _to, uint256 _tokenId ) private {\n      uint256 pos = _searchToken( _from, _tokenId);\n      uint256 cnt = tokensPerOwner[_from].length - 1;\n\n      require( tokensPerOwner[_from][pos] == _tokenId ); // --- gefunden  ---\n\n      tokensPerOwner[_from][pos] = tokensPerOwner[_from][cnt];\n      delete tokensPerOwner[_from][cnt];\n      tokensPerOwner[_from].length--;\n      tokensPerOwner[_to].push(_tokenId);\n\n      whoHastoken[_tokenId] = _to;\n\n      emit Transfer(_from, _to, _tokenId);\n    }\n\n    function transfer( address _to, uint256 _tokenId ) public {\n\n        address currentOwner = msg.sender;\n        address newOwner = _to;\n\n\n        require( whoHastoken[_tokenId] != address(0) );\n        require( newOwner != ownerOf(_tokenId) );\n        require( newOwner != address(0) );\n\n        _transfer(currentOwner, newOwner, _tokenId);\n    }\n\n    function approve(address _to, uint256 _tokenId) public {\n        require( msg.sender == ownerOf(_tokenId) );\n        require( msg.sender != _to );\n\n        allowed[msg.sender][_to] = _tokenId;\n        emit Approval(msg.sender, _to, _tokenId);\n    }\n\n\n    function takeOwnership(uint256 _tokenId) public {\n        address currentOwner = ownerOf(_tokenId);\n        address newOwner = msg.sender;\n\n        require( newOwner != currentOwner );\n        require( allowed[currentOwner][newOwner] == _tokenId );\n\n        _transfer(currentOwner,newOwner,_tokenId);\n    }\n\n    function tokenMetadata(uint256 _tokenId) public view returns (string memory) {\n        return metaData[_tokenId];\n    }\n\n\n    event Transfer(address indexed _from, address indexed _to, uint256 _tokenId);\n    event Approval(address indexed _owner, address indexed _approved, uint256 _tokenId);\n}\n",
  "sourcePath": "/home/geth2019/SimpleUnique/contracts/SimpleUnique.sol",
  "compiler": {
    "name": "solc",
    "version": "0.5.16+commit.9c3226ce.Emscripten.clang"
  },
  "schemaVersion": "3.2.1",
  "updatedAt": "2020-07-15T20:41:10.558Z",
  "networkType": "ethereum",
  "devdoc": {
    "methods": {}
  },
  "userdoc": {
    "methods": {}
  }
}