{
  "contractName": "SimpleUnique",
  "abi": [
    {
      "inputs": [],
      "payable": false,
      "stateMutability": "nonpayable",
      "type": "constructor"
    },
    {
      "anonymous": false,
      "inputs": [
        {
          "indexed": true,
          "internalType": "address",
          "name": "_owner",
          "type": "address"
        },
        {
          "indexed": true,
          "internalType": "address",
          "name": "_approved",
          "type": "address"
        },
        {
          "indexed": false,
          "internalType": "uint256",
          "name": "_tokenId",
          "type": "uint256"
        }
      ],
      "name": "Approval",
      "type": "event"
    },
    {
      "anonymous": false,
      "inputs": [
        {
          "indexed": true,
          "internalType": "address",
          "name": "_from",
          "type": "address"
        },
        {
          "indexed": true,
          "internalType": "address",
          "name": "_to",
          "type": "address"
        },
        {
          "indexed": false,
          "internalType": "uint256",
          "name": "_tokenId",
          "type": "uint256"
        }
      ],
      "name": "Transfer",
      "type": "event"
    },
    {
      "constant": true,
      "inputs": [],
      "name": "name",
      "outputs": [
        {
          "internalType": "string",
          "name": "",
          "type": "string"
        }
      ],
      "payable": false,
      "stateMutability": "pure",
      "type": "function"
    },
    {
      "constant": true,
      "inputs": [],
      "name": "symbol",
      "outputs": [
        {
          "internalType": "string",
          "name": "",
          "type": "string"
        }
      ],
      "payable": false,
      "stateMutability": "pure",
      "type": "function"
    },
    {
      "constant": true,
      "inputs": [],
      "name": "totalSupply",
      "outputs": [
        {
          "internalType": "uint256",
          "name": "",
          "type": "uint256"
        }
      ],
      "payable": false,
      "stateMutability": "view",
      "type": "function"
    },
    {
      "constant": true,
      "inputs": [
        {
          "internalType": "address",
          "name": "_owner",
          "type": "address"
        }
      ],
      "name": "balanceOf",
      "outputs": [
        {
          "internalType": "uint256",
          "name": "",
          "type": "uint256"
        }
      ],
      "payable": false,
      "stateMutability": "view",
      "type": "function"
    },
    {
      "constant": true,
      "inputs": [
        {
          "internalType": "uint256",
          "name": "_tokenId",
          "type": "uint256"
        }
      ],
      "name": "ownerOf",
      "outputs": [
        {
          "internalType": "address",
          "name": "",
          "type": "address"
        }
      ],
      "payable": false,
      "stateMutability": "view",
      "type": "function"
    },
    {
      "constant": true,
      "inputs": [
        {
          "internalType": "address",
          "name": "_owner",
          "type": "address"
        },
        {
          "internalType": "uint256",
          "name": "_idx",
          "type": "uint256"
        }
      ],
      "name": "tokenOfOwnerByIndex",
      "outputs": [
        {
          "internalType": "uint256",
          "name": "",
          "type": "uint256"
        }
      ],
      "payable": false,
      "stateMutability": "view",
      "type": "function"
    },
    {
      "constant": false,
      "inputs": [
        {
          "internalType": "uint256",
          "name": "_tokenId",
          "type": "uint256"
        }
      ],
      "name": "mintToken",
      "outputs": [],
      "payable": false,
      "stateMutability": "nonpayable",
      "type": "function"
    },
    {
      "constant": false,
      "inputs": [
        {
          "internalType": "address",
          "name": "_to",
          "type": "address"
        },
        {
          "internalType": "uint256",
          "name": "_tokenId",
          "type": "uint256"
        }
      ],
      "name": "transfer",
      "outputs": [],
      "payable": false,
      "stateMutability": "nonpayable",
      "type": "function"
    },
    {
      "constant": false,
      "inputs": [
        {
          "internalType": "address",
          "name": "_to",
          "type": "address"
        },
        {
          "internalType": "uint256",
          "name": "_tokenId",
          "type": "uint256"
        }
      ],
      "name": "approve",
      "outputs": [],
      "payable": false,
      "stateMutability": "nonpayable",
      "type": "function"
    },
    {
      "constant": false,
      "inputs": [
        {
          "internalType": "uint256",
          "name": "_tokenId",
          "type": "uint256"
        }
      ],
      "name": "takeOwnership",
      "outputs": [],
      "payable": false,
      "stateMutability": "nonpayable",
      "type": "function"
    }
  ],
  "bytecode": "0x608060405234801561001057600080fd5b50336000806101000a81548173ffffffffffffffffffffffffffffffffffffffff021916908373ffffffffffffffffffffffffffffffffffffffff1602179055506000600181905550610fd9806100686000396000f3fe608060405234801561001057600080fd5b506004361061009e5760003560e01c806370a082311161006657806370a082311461026257806395d89b41146102ba578063a9059cbb1461033d578063b2e6ceeb1461038b578063c634d032146103b95761009e565b806306fdde03146100a3578063095ea7b31461012657806318160ddd146101745780632f745c59146101925780636352211e146101f4575b600080fd5b6100ab6103e7565b6040518080602001828103825283818151815260200191508051906020019080838360005b838110156100eb5780820151818401526020810190506100d0565b50505050905090810190601f1680156101185780820380516001836020036101000a031916815260200191505b509250505060405180910390f35b6101726004803603604081101561013c57600080fd5b81019080803573ffffffffffffffffffffffffffffffffffffffff16906020019092919080359060200190929190505050610424565b005b61017c610587565b6040518082815260200191505060405180910390f35b6101de600480360360408110156101a857600080fd5b81019080803573ffffffffffffffffffffffffffffffffffffffff16906020019092919080359060200190929190505050610591565b6040518082815260200191505060405180910390f35b6102206004803603602081101561020a57600080fd5b81019080803590602001909291905050506105f0565b604051808273ffffffffffffffffffffffffffffffffffffffff1673ffffffffffffffffffffffffffffffffffffffff16815260200191505060405180910390f35b6102a46004803603602081101561027857600080fd5b81019080803573ffffffffffffffffffffffffffffffffffffffff169060200190929190505050610699565b6040518082815260200191505060405180910390f35b6102c26106e5565b6040518080602001828103825283818151815260200191508051906020019080838360005b838110156103025780820151818401526020810190506102e7565b50505050905090810190601f16801561032f5780820380516001836020036101000a031916815260200191505b509250505060405180910390f35b6103896004803603604081101561035357600080fd5b81019080803573ffffffffffffffffffffffffffffffffffffffff16906020019092919080359060200190929190505050610722565b005b6103b7600480360360208110156103a157600080fd5b8101908080359060200190929190505050610825565b005b6103e5600480360360208110156103cf57600080fd5b8101908080359060200190929190505050610908565b005b60606040518060400160405280600b81526020017f4e6f6465416e64436f6465000000000000000000000000000000000000000000815250905090565b61042d816105f0565b73ffffffffffffffffffffffffffffffffffffffff163373ffffffffffffffffffffffffffffffffffffffff161461046457600080fd5b8173ffffffffffffffffffffffffffffffffffffffff163373ffffffffffffffffffffffffffffffffffffffff16141561049d57600080fd5b80600460003373ffffffffffffffffffffffffffffffffffffffff1673ffffffffffffffffffffffffffffffffffffffff16815260200190815260200160002060008473ffffffffffffffffffffffffffffffffffffffff1673ffffffffffffffffffffffffffffffffffffffff168152602001908152602001600020819055508173ffffffffffffffffffffffffffffffffffffffff163373ffffffffffffffffffffffffffffffffffffffff167f8c5be1e5ebec7d5bd14f71427d1e84f3dd0314c0f7b2291e5b200ac8c7c3b925836040518082815260200191505060405180910390a35050565b6000600154905090565b6000600260008473ffffffffffffffffffffffffffffffffffffffff1673ffffffffffffffffffffffffffffffffffffffff16815260200190815260200160002082815481106105dd57fe5b9060005260206000200154905092915050565b60008073ffffffffffffffffffffffffffffffffffffffff166003600084815260200190815260200160002060009054906101000a900473ffffffffffffffffffffffffffffffffffffffff1673ffffffffffffffffffffffffffffffffffffffff16141561065e57600080fd5b6003600083815260200190815260200160002060009054906101000a900473ffffffffffffffffffffffffffffffffffffffff169050919050565b6000600260008373ffffffffffffffffffffffffffffffffffffffff1673ffffffffffffffffffffffffffffffffffffffff168152602001908152602001600020805490509050919050565b60606040518060400160405280600481526020017f4e41435500000000000000000000000000000000000000000000000000000000815250905090565b60003390506000839050600073ffffffffffffffffffffffffffffffffffffffff166003600085815260200190815260200160002060009054906101000a900473ffffffffffffffffffffffffffffffffffffffff1673ffffffffffffffffffffffffffffffffffffffff16141561079957600080fd5b6107a2836105f0565b73ffffffffffffffffffffffffffffffffffffffff168173ffffffffffffffffffffffffffffffffffffffff1614156107da57600080fd5b600073ffffffffffffffffffffffffffffffffffffffff168173ffffffffffffffffffffffffffffffffffffffff16141561081457600080fd5b61081f828285610aec565b50505050565b6000610830826105f0565b905060003390508173ffffffffffffffffffffffffffffffffffffffff168173ffffffffffffffffffffffffffffffffffffffff16141561087057600080fd5b82600460008473ffffffffffffffffffffffffffffffffffffffff1673ffffffffffffffffffffffffffffffffffffffff16815260200190815260200160002060008373ffffffffffffffffffffffffffffffffffffffff1673ffffffffffffffffffffffffffffffffffffffff16815260200190815260200160002054146108f857600080fd5b610903828285610aec565b505050565b6000809054906101000a900473ffffffffffffffffffffffffffffffffffffffff1673ffffffffffffffffffffffffffffffffffffffff163373ffffffffffffffffffffffffffffffffffffffff161461096157600080fd5b6000811161096e57600080fd5b600073ffffffffffffffffffffffffffffffffffffffff166003600083815260200190815260200160002060009054906101000a900473ffffffffffffffffffffffffffffffffffffffff1673ffffffffffffffffffffffffffffffffffffffff16146109da57600080fd5b600260008060009054906101000a900473ffffffffffffffffffffffffffffffffffffffff1673ffffffffffffffffffffffffffffffffffffffff1673ffffffffffffffffffffffffffffffffffffffff1681526020019081526020016000208190806001815401808255809150509060018203906000526020600020016000909192909190915055506000809054906101000a900473ffffffffffffffffffffffffffffffffffffffff166003600083815260200190815260200160002060006101000a81548173ffffffffffffffffffffffffffffffffffffffff021916908373ffffffffffffffffffffffffffffffffffffffff16021790555060016000815480929190600101919050555050565b6000610af88483610e23565b905060006001600260008773ffffffffffffffffffffffffffffffffffffffff1673ffffffffffffffffffffffffffffffffffffffff1681526020019081526020016000208054905003905082600260008773ffffffffffffffffffffffffffffffffffffffff1673ffffffffffffffffffffffffffffffffffffffff1681526020019081526020016000208381548110610b8f57fe5b906000526020600020015414610ba457600080fd5b600260008673ffffffffffffffffffffffffffffffffffffffff1673ffffffffffffffffffffffffffffffffffffffff1681526020019081526020016000208181548110610bee57fe5b9060005260206000200154600260008773ffffffffffffffffffffffffffffffffffffffff1673ffffffffffffffffffffffffffffffffffffffff1681526020019081526020016000208381548110610c4357fe5b9060005260206000200181905550600260008673ffffffffffffffffffffffffffffffffffffffff1673ffffffffffffffffffffffffffffffffffffffff1681526020019081526020016000208181548110610c9b57fe5b9060005260206000200160009055600260008673ffffffffffffffffffffffffffffffffffffffff1673ffffffffffffffffffffffffffffffffffffffff168152602001908152602001600020805480919060019003610cfb9190610f53565b50600260008573ffffffffffffffffffffffffffffffffffffffff1673ffffffffffffffffffffffffffffffffffffffff168152602001908152602001600020839080600181540180825580915050906001820390600052602060002001600090919290919091505550836003600085815260200190815260200160002060006101000a81548173ffffffffffffffffffffffffffffffffffffffff021916908373ffffffffffffffffffffffffffffffffffffffff1602179055508373ffffffffffffffffffffffffffffffffffffffff168573ffffffffffffffffffffffffffffffffffffffff167fddf252ad1be2c89b69c2b068fc378daa952ba7f163c4a11628f55a4df523b3ef856040518082815260200191505060405180910390a35050505050565b600080600090505b600260008573ffffffffffffffffffffffffffffffffffffffff1673ffffffffffffffffffffffffffffffffffffffff1681526020019081526020016000208054905081108015610ed0575082600260008673ffffffffffffffffffffffffffffffffffffffff1673ffffffffffffffffffffffffffffffffffffffff1681526020019081526020016000208281548110610ec257fe5b906000526020600020015414155b15610ee2578080600101915050610e2b565b82600260008673ffffffffffffffffffffffffffffffffffffffff1673ffffffffffffffffffffffffffffffffffffffff1681526020019081526020016000208281548110610f2d57fe5b90600052602060002001541415610f475780915050610f4d565b60009150505b92915050565b815481835581811115610f7a57818360005260206000209182019101610f799190610f7f565b5b505050565b610fa191905b80821115610f9d576000816000905550600101610f85565b5090565b9056fea265627a7a72315820b7b0b8b8f659faa0cc24eb6eda8b2ddd051e96c1af9ec1de771f86ab30e8aa5364736f6c63430005100032",
  "source": "pragma solidity ^0.5.0;\n\n/*\n*    Simple Example of an unique non fungible ERC-721 token\n*    https://medium.com/crypto-currently/the-anatomy-of-erc721-e9db77abfc24\n*/\n\n\ncontract SimpleUnique {\n\n    address owner;\n    uint256 totalCoins;\n    //mapping( address => uint ) private balances;                                /* wieviele Tokens hat die Adresse? */\n    mapping( address => uint256[] ) private tokensPerOwner;\n    mapping( uint256 => address ) private whoHastoken;                          /* wer hat das Token x ? */\n    mapping( address => mapping ( address => uint256 )) private allowed;        /* darf sich das Token holen */\n\n    constructor() public {\n        owner = msg.sender;\n        totalCoins = 0;\n    }\n\n    // --- Description ---\n    function name() public pure returns (string memory) {\n        return \"NodeAndCode\";\n    }\n\n    function symbol() public pure returns (string memory) {\n        return \"NACU\";\n    }\n\n    function totalSupply() public view returns (uint256) {\n        return totalCoins;\n    }\n\n\n    // --- My Tokens ---\n    function balanceOf(address _owner) public view returns (uint) {\n        return tokensPerOwner[_owner].length;\n    }\n\n\n    // --- Who has a particular token ---\n    function ownerOf(uint256 _tokenId) public view returns (address) {\n        require(whoHastoken[_tokenId] != address(0));\n\n        return whoHastoken[_tokenId];\n    }\n\n    function tokenOfOwnerByIndex(address _owner, uint256 _idx) public view returns (uint256) {\n      return tokensPerOwner[_owner][_idx];\n    }\n\n\n    // --- Mint Token ---\n    function mintToken(uint256 _tokenId) public {\n        require( msg.sender == owner );\n        require( _tokenId > 0 );\n        require( whoHastoken[_tokenId] == address(0) );\n\n        tokensPerOwner[owner].push(_tokenId);\n        whoHastoken[_tokenId] = owner;\n        totalCoins++;\n    }\n\n\n    // --- search token in owner's list ---\n    function _searchToken( address _owner, uint256 _tokenId ) private view returns (uint256) {\n        uint256 n = 0;\n        while (n < tokensPerOwner[_owner].length && tokensPerOwner[_owner][n] != _tokenId) {\n          n++;\n        }\n        if ( tokensPerOwner[_owner][n] == _tokenId ) {\n          return n;  // --- gefunden  ---\n        }\n        else {\n          return 0; // nicht gefunden\n        }\n    }\n\n    // --- Ownership Transfer ---\n    function _transfer( address _from, address _to, uint256 _tokenId ) private {\n      uint256 pos = _searchToken( _from, _tokenId);\n      uint256 cnt = tokensPerOwner[_from].length - 1;\n\n      require( tokensPerOwner[_from][pos] == _tokenId ); // --- gefunden  ---\n\n      tokensPerOwner[_from][pos] = tokensPerOwner[_from][cnt];\n      delete tokensPerOwner[_from][cnt];\n      tokensPerOwner[_from].length--;\n      tokensPerOwner[_to].push(_tokenId);\n\n      whoHastoken[_tokenId] = _to;\n\n      emit Transfer(_from, _to, _tokenId);\n    }\n\n    function transfer( address _to, uint256 _tokenId ) public {\n\n        address currentOwner = msg.sender;\n        address newOwner = _to;\n\n\n        require( whoHastoken[_tokenId] != address(0) );\n        require( newOwner != ownerOf(_tokenId) );\n        require( newOwner != address(0) );\n\n        _transfer(currentOwner, newOwner, _tokenId);\n    }\n\n    function approve(address _to, uint256 _tokenId) public {\n        require( msg.sender == ownerOf(_tokenId) );\n        require( msg.sender != _to );\n\n        allowed[msg.sender][_to] = _tokenId;\n        emit Approval(msg.sender, _to, _tokenId);\n    }\n\n\n    function takeOwnership(uint256 _tokenId) public {\n        address currentOwner = ownerOf(_tokenId);\n        address newOwner = msg.sender;\n\n        require( newOwner != currentOwner );\n        require( allowed[currentOwner][newOwner] == _tokenId );\n\n        _transfer(currentOwner,newOwner,_tokenId);\n    }\n\n    event Transfer(address indexed _from, address indexed _to, uint256 _tokenId);\n    event Approval(address indexed _owner, address indexed _approved, uint256 _tokenId);\n}\n",
  "sourcePath": "/home/geth2019/SimpleUnique/contracts/SimpleUnique.sol",
  "compiler": {
    "name": "solc",
    "version": "0.5.16+commit.9c3226ce.Emscripten.clang"
  },
  "schemaVersion": "3.2.1",
  "updatedAt": "2020-07-15T16:39:24.758Z",
  "networkType": "ethereum",
  "devdoc": {
    "methods": {}
  },
  "userdoc": {
    "methods": {}
  }
}