{
  "contractName": "SimpleUnique",
  "abi": [
    {
      "inputs": [
        {
          "internalType": "string",
          "name": "_name",
          "type": "string"
        },
        {
          "internalType": "string",
          "name": "_symbol",
          "type": "string"
        }
      ],
      "payable": false,
      "stateMutability": "nonpayable",
      "type": "constructor"
    },
    {
      "anonymous": false,
      "inputs": [
        {
          "indexed": true,
          "internalType": "address",
          "name": "_owner",
          "type": "address"
        },
        {
          "indexed": true,
          "internalType": "address",
          "name": "_approved",
          "type": "address"
        },
        {
          "indexed": false,
          "internalType": "uint256",
          "name": "_tokenId",
          "type": "uint256"
        }
      ],
      "name": "Approval",
      "type": "event"
    },
    {
      "anonymous": false,
      "inputs": [
        {
          "indexed": true,
          "internalType": "address",
          "name": "_from",
          "type": "address"
        },
        {
          "indexed": true,
          "internalType": "address",
          "name": "_to",
          "type": "address"
        },
        {
          "indexed": false,
          "internalType": "uint256",
          "name": "_tokenId",
          "type": "uint256"
        }
      ],
      "name": "Transfer",
      "type": "event"
    },
    {
      "constant": true,
      "inputs": [],
      "name": "name",
      "outputs": [
        {
          "internalType": "string",
          "name": "",
          "type": "string"
        }
      ],
      "payable": false,
      "stateMutability": "view",
      "type": "function"
    },
    {
      "constant": true,
      "inputs": [],
      "name": "symbol",
      "outputs": [
        {
          "internalType": "string",
          "name": "",
          "type": "string"
        }
      ],
      "payable": false,
      "stateMutability": "view",
      "type": "function"
    },
    {
      "constant": true,
      "inputs": [],
      "name": "totalSupply",
      "outputs": [
        {
          "internalType": "uint256",
          "name": "",
          "type": "uint256"
        }
      ],
      "payable": false,
      "stateMutability": "view",
      "type": "function"
    },
    {
      "constant": true,
      "inputs": [
        {
          "internalType": "address",
          "name": "_owner",
          "type": "address"
        }
      ],
      "name": "balanceOf",
      "outputs": [
        {
          "internalType": "uint256",
          "name": "",
          "type": "uint256"
        }
      ],
      "payable": false,
      "stateMutability": "view",
      "type": "function"
    },
    {
      "constant": true,
      "inputs": [
        {
          "internalType": "uint256",
          "name": "_tokenId",
          "type": "uint256"
        }
      ],
      "name": "ownerOf",
      "outputs": [
        {
          "internalType": "address",
          "name": "",
          "type": "address"
        }
      ],
      "payable": false,
      "stateMutability": "view",
      "type": "function"
    },
    {
      "constant": true,
      "inputs": [
        {
          "internalType": "address",
          "name": "_owner",
          "type": "address"
        },
        {
          "internalType": "uint256",
          "name": "_idx",
          "type": "uint256"
        }
      ],
      "name": "tokenOfOwnerByIndex",
      "outputs": [
        {
          "internalType": "uint256",
          "name": "",
          "type": "uint256"
        }
      ],
      "payable": false,
      "stateMutability": "view",
      "type": "function"
    },
    {
      "constant": false,
      "inputs": [
        {
          "internalType": "uint256",
          "name": "_tokenId",
          "type": "uint256"
        },
        {
          "internalType": "string",
          "name": "_metaData",
          "type": "string"
        }
      ],
      "name": "mintToken",
      "outputs": [],
      "payable": false,
      "stateMutability": "nonpayable",
      "type": "function"
    },
    {
      "constant": false,
      "inputs": [
        {
          "internalType": "address",
          "name": "_to",
          "type": "address"
        },
        {
          "internalType": "uint256",
          "name": "_tokenId",
          "type": "uint256"
        }
      ],
      "name": "transfer",
      "outputs": [],
      "payable": false,
      "stateMutability": "nonpayable",
      "type": "function"
    },
    {
      "constant": false,
      "inputs": [
        {
          "internalType": "address",
          "name": "_to",
          "type": "address"
        },
        {
          "internalType": "uint256",
          "name": "_tokenId",
          "type": "uint256"
        }
      ],
      "name": "approve",
      "outputs": [],
      "payable": false,
      "stateMutability": "nonpayable",
      "type": "function"
    },
    {
      "constant": false,
      "inputs": [
        {
          "internalType": "uint256",
          "name": "_tokenId",
          "type": "uint256"
        }
      ],
      "name": "takeOwnership",
      "outputs": [],
      "payable": false,
      "stateMutability": "nonpayable",
      "type": "function"
    },
    {
      "constant": true,
      "inputs": [
        {
          "internalType": "uint256",
          "name": "_tokenId",
          "type": "uint256"
        }
      ],
      "name": "getApproved",
      "outputs": [
        {
          "internalType": "address",
          "name": "",
          "type": "address"
        }
      ],
      "payable": false,
      "stateMutability": "view",
      "type": "function"
    },
    {
      "constant": true,
      "inputs": [
        {
          "internalType": "uint256",
          "name": "_tokenId",
          "type": "uint256"
        }
      ],
      "name": "tokenMetadata",
      "outputs": [
        {
          "internalType": "string",
          "name": "",
          "type": "string"
        }
      ],
      "payable": false,
      "stateMutability": "view",
      "type": "function"
    }
  ],
  "bytecode": "0x60806040523480156200001157600080fd5b506040516200180638038062001806833981810160405260408110156200003757600080fd5b81019080805160405193929190846401000000008211156200005857600080fd5b838201915060208201858111156200006f57600080fd5b82518660018202830111640100000000821117156200008d57600080fd5b8083526020830192505050908051906020019080838360005b83811015620000c3578082015181840152602081019050620000a6565b50505050905090810190601f168015620000f15780820380516001836020036101000a031916815260200191505b50604052602001805160405193929190846401000000008211156200011557600080fd5b838201915060208201858111156200012c57600080fd5b82518660018202830111640100000000821117156200014a57600080fd5b8083526020830192505050908051906020019080838360005b838110156200018057808201518184015260208101905062000163565b50505050905090810190601f168015620001ae5780820380516001836020036101000a031916815260200191505b50604052505050336000806101000a81548173ffffffffffffffffffffffffffffffffffffffff021916908373ffffffffffffffffffffffffffffffffffffffff160217905550600060018190555081600290805190602001906200021592919062000237565b5080600390805190602001906200022e92919062000237565b505050620002e6565b828054600181600116156101000203166002900490600052602060002090601f016020900481019282601f106200027a57805160ff1916838001178555620002ab565b82800160010185558215620002ab579182015b82811115620002aa5782518255916020019190600101906200028d565b5b509050620002ba9190620002be565b5090565b620002e391905b80821115620002df576000816000905550600101620002c5565b5090565b90565b61151080620002f66000396000f3fe608060405234801561001057600080fd5b50600436106100b45760003560e01c80636914db60116100715780636914db60146102e657806370a082311461038d578063752312a9146103e557806395d89b41146104aa578063a9059cbb1461052d578063b2e6ceeb1461057b576100b4565b806306fdde03146100b9578063081812fc1461013c578063095ea7b3146101aa57806318160ddd146101f85780632f745c59146102165780636352211e14610278575b600080fd5b6100c16105a9565b6040518080602001828103825283818151815260200191508051906020019080838360005b838110156101015780820151818401526020810190506100e6565b50505050905090810190601f16801561012e5780820380516001836020036101000a031916815260200191505b509250505060405180910390f35b6101686004803603602081101561015257600080fd5b810190808035906020019092919050505061064b565b604051808273ffffffffffffffffffffffffffffffffffffffff1673ffffffffffffffffffffffffffffffffffffffff16815260200191505060405180910390f35b6101f6600480360360408110156101c057600080fd5b81019080803573ffffffffffffffffffffffffffffffffffffffff169060200190929190803590602001909291905050506106d2565b005b610200610843565b6040518082815260200191505060405180910390f35b6102626004803603604081101561022c57600080fd5b81019080803573ffffffffffffffffffffffffffffffffffffffff1690602001909291908035906020019092919050505061084d565b6040518082815260200191505060405180910390f35b6102a46004803603602081101561028e57600080fd5b81019080803590602001909291905050506108ac565b604051808273ffffffffffffffffffffffffffffffffffffffff1673ffffffffffffffffffffffffffffffffffffffff16815260200191505060405180910390f35b610312600480360360208110156102fc57600080fd5b8101908080359060200190929190505050610955565b6040518080602001828103825283818151815260200191508051906020019080838360005b83811015610352578082015181840152602081019050610337565b50505050905090810190601f16801561037f5780820380516001836020036101000a031916815260200191505b509250505060405180910390f35b6103cf600480360360208110156103a357600080fd5b81019080803573ffffffffffffffffffffffffffffffffffffffff169060200190929190505050610a0a565b6040518082815260200191505060405180910390f35b6104a8600480360360408110156103fb57600080fd5b81019080803590602001909291908035906020019064010000000081111561042257600080fd5b82018360208201111561043457600080fd5b8035906020019184600183028401116401000000008311171561045657600080fd5b91908080601f016020809104026020016040519081016040528093929190818152602001838380828437600081840152601f19601f820116905080830192505050505050509192919290505050610a56565b005b6104b2610c63565b6040518080602001828103825283818151815260200191508051906020019080838360005b838110156104f25780820151818401526020810190506104d7565b50505050905090810190601f16801561051f5780820380516001836020036101000a031916815260200191505b509250505060405180910390f35b6105796004803603604081101561054357600080fd5b81019080803573ffffffffffffffffffffffffffffffffffffffff16906020019092919080359060200190929190505050610d05565b005b6105a76004803603602081101561059157600080fd5b8101908080359060200190929190505050610e08565b005b606060028054600181600116156101000203166002900480601f0160208091040260200160405190810160405280929190818152602001828054600181600116156101000203166002900480156106415780601f1061061657610100808354040283529160200191610641565b820191906000526020600020905b81548152906001019060200180831161062457829003601f168201915b5050505050905090565b600080610657836108ac565b9050600660008273ffffffffffffffffffffffffffffffffffffffff1673ffffffffffffffffffffffffffffffffffffffff168152602001908152602001600020600084815260200190815260200160002060009054906101000a900473ffffffffffffffffffffffffffffffffffffffff16915050919050565b6106db816108ac565b73ffffffffffffffffffffffffffffffffffffffff163373ffffffffffffffffffffffffffffffffffffffff161461071257600080fd5b8173ffffffffffffffffffffffffffffffffffffffff163373ffffffffffffffffffffffffffffffffffffffff16141561074b57600080fd5b81600660003373ffffffffffffffffffffffffffffffffffffffff1673ffffffffffffffffffffffffffffffffffffffff168152602001908152602001600020600083815260200190815260200160002060006101000a81548173ffffffffffffffffffffffffffffffffffffffff021916908373ffffffffffffffffffffffffffffffffffffffff1602179055508173ffffffffffffffffffffffffffffffffffffffff163373ffffffffffffffffffffffffffffffffffffffff167f8c5be1e5ebec7d5bd14f71427d1e84f3dd0314c0f7b2291e5b200ac8c7c3b925836040518082815260200191505060405180910390a35050565b6000600154905090565b6000600460008473ffffffffffffffffffffffffffffffffffffffff1673ffffffffffffffffffffffffffffffffffffffff168152602001908152602001600020828154811061089957fe5b9060005260206000200154905092915050565b60008073ffffffffffffffffffffffffffffffffffffffff166005600084815260200190815260200160002060009054906101000a900473ffffffffffffffffffffffffffffffffffffffff1673ffffffffffffffffffffffffffffffffffffffff16141561091a57600080fd5b6005600083815260200190815260200160002060009054906101000a900473ffffffffffffffffffffffffffffffffffffffff169050919050565b6060600760008381526020019081526020016000208054600181600116156101000203166002900480601f0160208091040260200160405190810160405280929190818152602001828054600181600116156101000203166002900480156109fe5780601f106109d3576101008083540402835291602001916109fe565b820191906000526020600020905b8154815290600101906020018083116109e157829003601f168201915b50505050509050919050565b6000600460008373ffffffffffffffffffffffffffffffffffffffff1673ffffffffffffffffffffffffffffffffffffffff168152602001908152602001600020805490509050919050565b6000809054906101000a900473ffffffffffffffffffffffffffffffffffffffff1673ffffffffffffffffffffffffffffffffffffffff163373ffffffffffffffffffffffffffffffffffffffff1614610aaf57600080fd5b60008211610abc57600080fd5b600073ffffffffffffffffffffffffffffffffffffffff166005600084815260200190815260200160002060009054906101000a900473ffffffffffffffffffffffffffffffffffffffff1673ffffffffffffffffffffffffffffffffffffffff1614610b2857600080fd5b600460008060009054906101000a900473ffffffffffffffffffffffffffffffffffffffff1673ffffffffffffffffffffffffffffffffffffffff1673ffffffffffffffffffffffffffffffffffffffff1681526020019081526020016000208290806001815401808255809150509060018203906000526020600020016000909192909190915055506000809054906101000a900473ffffffffffffffffffffffffffffffffffffffff166005600084815260200190815260200160002060006101000a81548173ffffffffffffffffffffffffffffffffffffffff021916908373ffffffffffffffffffffffffffffffffffffffff16021790555060016000815480929190600101919050555080600760008481526020019081526020016000209080519060200190610c5e92919061140a565b505050565b606060038054600181600116156101000203166002900480601f016020809104026020016040519081016040528092919081815260200182805460018160011615610100020316600290048015610cfb5780601f10610cd057610100808354040283529160200191610cfb565b820191906000526020600020905b815481529060010190602001808311610cde57829003601f168201915b5050505050905090565b60003390506000839050600073ffffffffffffffffffffffffffffffffffffffff166005600085815260200190815260200160002060009054906101000a900473ffffffffffffffffffffffffffffffffffffffff1673ffffffffffffffffffffffffffffffffffffffff161415610d7c57600080fd5b610d85836108ac565b73ffffffffffffffffffffffffffffffffffffffff168173ffffffffffffffffffffffffffffffffffffffff161415610dbd57600080fd5b600073ffffffffffffffffffffffffffffffffffffffff168173ffffffffffffffffffffffffffffffffffffffff161415610df757600080fd5b610e02828285610f0b565b50505050565b6000610e13826108ac565b905060003390508173ffffffffffffffffffffffffffffffffffffffff168173ffffffffffffffffffffffffffffffffffffffff161415610e5357600080fd5b8073ffffffffffffffffffffffffffffffffffffffff16600660008473ffffffffffffffffffffffffffffffffffffffff1673ffffffffffffffffffffffffffffffffffffffff168152602001908152602001600020600085815260200190815260200160002060009054906101000a900473ffffffffffffffffffffffffffffffffffffffff1673ffffffffffffffffffffffffffffffffffffffff1614610efb57600080fd5b610f06828285610f0b565b505050565b610f14816108ac565b73ffffffffffffffffffffffffffffffffffffffff163373ffffffffffffffffffffffffffffffffffffffff1614610f4b57600080fd5b6000610f5784836112bb565b905060008112158015610f8957507f7fffffffffffffffffffffffffffffffffffffffffffffffffffffffffffffff81125b610f9257600080fd5b60006001600460008773ffffffffffffffffffffffffffffffffffffffff1673ffffffffffffffffffffffffffffffffffffffff1681526020019081526020016000208054905003905082600460008773ffffffffffffffffffffffffffffffffffffffff1673ffffffffffffffffffffffffffffffffffffffff168152602001908152602001600020838154811061102757fe5b90600052602060002001541461103c57600080fd5b600460008673ffffffffffffffffffffffffffffffffffffffff1673ffffffffffffffffffffffffffffffffffffffff168152602001908152602001600020818154811061108657fe5b9060005260206000200154600460008773ffffffffffffffffffffffffffffffffffffffff1673ffffffffffffffffffffffffffffffffffffffff16815260200190815260200160002083815481106110db57fe5b9060005260206000200181905550600460008673ffffffffffffffffffffffffffffffffffffffff1673ffffffffffffffffffffffffffffffffffffffff168152602001908152602001600020818154811061113357fe5b9060005260206000200160009055600460008673ffffffffffffffffffffffffffffffffffffffff1673ffffffffffffffffffffffffffffffffffffffff168152602001908152602001600020805480919060019003611193919061148a565b50600460008573ffffffffffffffffffffffffffffffffffffffff1673ffffffffffffffffffffffffffffffffffffffff168152602001908152602001600020839080600181540180825580915050906001820390600052602060002001600090919290919091505550836005600085815260200190815260200160002060006101000a81548173ffffffffffffffffffffffffffffffffffffffff021916908373ffffffffffffffffffffffffffffffffffffffff1602179055508373ffffffffffffffffffffffffffffffffffffffff168573ffffffffffffffffffffffffffffffffffffffff167fddf252ad1be2c89b69c2b068fc378daa952ba7f163c4a11628f55a4df523b3ef856040518082815260200191505060405180910390a35050505050565b600080600090505b600460008573ffffffffffffffffffffffffffffffffffffffff1673ffffffffffffffffffffffffffffffffffffffff1681526020019081526020016000208054905081108015611368575082600460008673ffffffffffffffffffffffffffffffffffffffff1673ffffffffffffffffffffffffffffffffffffffff168152602001908152602001600020828154811061135a57fe5b906000526020600020015414155b1561137a5780806001019150506112c3565b82600460008673ffffffffffffffffffffffffffffffffffffffff1673ffffffffffffffffffffffffffffffffffffffff16815260200190815260200160002082815481106113c557fe5b906000526020600020015414156113df5780915050611404565b7fffffffffffffffffffffffffffffffffffffffffffffffffffffffffffffffff9150505b92915050565b828054600181600116156101000203166002900490600052602060002090601f016020900481019282601f1061144b57805160ff1916838001178555611479565b82800160010185558215611479579182015b8281111561147857825182559160200191906001019061145d565b5b50905061148691906114b6565b5090565b8154818355818111156114b1578183600052602060002091820191016114b091906114b6565b5b505050565b6114d891905b808211156114d45760008160009055506001016114bc565b5090565b9056fea265627a7a7231582044db4e3e6b5a7a522f7a586e0880c19c2fc34e9e982a8a4d5ea191c089a8bd7a64736f6c63430005100032",
  "source": "pragma solidity ^0.5.0;\n\n/*\n*    Simple Example of an unique non fungible ERC-721 token\n*    https://medium.com/crypto-currently/the-anatomy-of-erc721-e9db77abfc24\n*/\n\n\ncontract SimpleUnique {\n    address owner;\n    uint256 totalTokens;\n    string nameToken;\n    string symbolToken;\n    mapping( address => uint256[] ) private tokensPerOwner;\n    mapping( uint256 => address ) private whoHastoken;                          /* who owns that token */\n    mapping( address => mapping ( uint256 => address )) private allowed;        /* who can fetch this token */\n    mapping( uint256 => string ) private metaData;\n\n    constructor(string memory _name, string memory _symbol) public {\n        owner = msg.sender;\n        totalTokens = 0;\n        nameToken = _name;\n        symbolToken = _symbol;\n    }\n\n    // --- Description ---\n    function name() public view returns (string memory) {\n        return nameToken;\n    }\n\n    function symbol() public view returns (string memory) {\n        return symbolToken;\n    }\n\n    function totalSupply() public view returns (uint256) {\n        return totalTokens;\n    }\n\n\n    // --- My Tokens ---\n    function balanceOf(address _owner) public view returns (uint) {\n        return tokensPerOwner[_owner].length;\n    }\n\n\n    // --- Who has a particular token ---\n    function ownerOf(uint256 _tokenId) public view returns (address) {\n        require(whoHastoken[_tokenId] != address(0));\n\n        return whoHastoken[_tokenId];\n    }\n\n    function tokenOfOwnerByIndex(address _owner, uint256 _idx) public view returns (uint256) {\n      return tokensPerOwner[_owner][_idx];\n    }\n\n\n    // --- Mint Token ---\n    function mintToken(uint256 _tokenId, string memory _metaData) public {\n        require( msg.sender == owner );\n        require( _tokenId > 0 );\n        require( whoHastoken[_tokenId] == address(0) );\n\n        tokensPerOwner[owner].push(_tokenId);\n        whoHastoken[_tokenId] = owner;\n        totalTokens++;\n\n        metaData[_tokenId] = _metaData;\n    }\n\n\n    // --- search token in owner's list ---\n    function _searchToken( address _owner, uint256 _tokenId ) private view returns (int256) {\n        uint256 n = 0;\n        while (n < tokensPerOwner[_owner].length && tokensPerOwner[_owner][n] != _tokenId) {\n          n++;\n        }\n        if ( tokensPerOwner[_owner][n] == _tokenId ) {\n          return int256(n);  // --- token found in list  ---\n        }\n        else {\n          return -1; // --- token not found --- \n        }\n    }\n\n    // --- Ownership Transfer ---\n    function _transfer( address _from, address _to, uint256 _tokenId ) private {\n\t  require(msg.sender == ownerOf(_tokenId)); \n      int256 pos = _searchToken( _from, _tokenId);\n\t  require( pos >= 0 && pos < 2**255 - 1 );\n      uint256 cnt = tokensPerOwner[_from].length - 1;\n      require( tokensPerOwner[_from][uint256(pos)] == _tokenId ); // --- gefunden  ---\n\t  \n      tokensPerOwner[_from][uint(pos)] = tokensPerOwner[_from][cnt];\n      delete tokensPerOwner[_from][cnt];\n      tokensPerOwner[_from].length--;\n      tokensPerOwner[_to].push(_tokenId);\n\n      whoHastoken[_tokenId] = _to;\n\n      emit Transfer(_from, _to, _tokenId);\n    }\n\n    function transfer( address _to, uint256 _tokenId ) public {\n\n        address currentOwner = msg.sender;\n        address newOwner = _to;\n\n        require( whoHastoken[_tokenId] != address(0) );\n        require( newOwner != ownerOf(_tokenId) );\n        require( newOwner != address(0) );\n\n        _transfer(currentOwner, newOwner, _tokenId);\n    }\n\n    function approve(address _to, uint256 _tokenId) public {\n        require( msg.sender == ownerOf(_tokenId) );\n        require( msg.sender != _to );\n\n        allowed[msg.sender][_tokenId] = _to;\n        emit Approval(msg.sender, _to, _tokenId);\n    }\n\n\n    function takeOwnership(uint256 _tokenId) public {\n        address currentOwner = ownerOf(_tokenId);\n        address newOwner = msg.sender;\n\n        require( newOwner != currentOwner );\n        require( allowed[currentOwner][_tokenId] == newOwner );\n\n        _transfer(currentOwner,newOwner,_tokenId);\n    }\n\n\tfunction getApproved(uint256 _tokenId) public view returns (address) {\n        address currentOwner = ownerOf(_tokenId);\n\t\treturn allowed[currentOwner][_tokenId];\n\t}\n\n    function tokenMetadata(uint256 _tokenId) public view returns (string memory) {\n        return metaData[_tokenId];\n    }\n\n\n    event Transfer(address indexed _from, address indexed _to, uint256 _tokenId);\n    event Approval(address indexed _owner, address indexed _approved, uint256 _tokenId);\n}\n",
  "sourcePath": "/home/geth2019/SimpleUnique/contracts/SimpleUnique.sol",
  "compiler": {
    "name": "solc",
    "version": "0.5.16+commit.9c3226ce.Emscripten.clang"
  },
  "schemaVersion": "3.2.1",
  "updatedAt": "2020-10-12T20:39:33.440Z",
  "networkType": "ethereum",
  "devdoc": {
    "methods": {}
  },
  "userdoc": {
    "methods": {}
  }
}