{
  "contractName": "SimpleUnique",
  "abi": [
    {
      "inputs": [],
      "payable": false,
      "stateMutability": "nonpayable",
      "type": "constructor"
    },
    {
      "anonymous": false,
      "inputs": [
        {
          "indexed": true,
          "internalType": "address",
          "name": "_owner",
          "type": "address"
        },
        {
          "indexed": true,
          "internalType": "address",
          "name": "_approved",
          "type": "address"
        },
        {
          "indexed": false,
          "internalType": "uint256",
          "name": "_tokenId",
          "type": "uint256"
        }
      ],
      "name": "Approval",
      "type": "event"
    },
    {
      "anonymous": false,
      "inputs": [
        {
          "indexed": true,
          "internalType": "address",
          "name": "_from",
          "type": "address"
        },
        {
          "indexed": true,
          "internalType": "address",
          "name": "_to",
          "type": "address"
        },
        {
          "indexed": false,
          "internalType": "uint256",
          "name": "_tokenId",
          "type": "uint256"
        }
      ],
      "name": "Transfer",
      "type": "event"
    },
    {
      "constant": true,
      "inputs": [],
      "name": "name",
      "outputs": [
        {
          "internalType": "string",
          "name": "",
          "type": "string"
        }
      ],
      "payable": false,
      "stateMutability": "pure",
      "type": "function"
    },
    {
      "constant": true,
      "inputs": [],
      "name": "symbol",
      "outputs": [
        {
          "internalType": "string",
          "name": "",
          "type": "string"
        }
      ],
      "payable": false,
      "stateMutability": "pure",
      "type": "function"
    },
    {
      "constant": true,
      "inputs": [],
      "name": "totalSupply",
      "outputs": [
        {
          "internalType": "uint256",
          "name": "",
          "type": "uint256"
        }
      ],
      "payable": false,
      "stateMutability": "pure",
      "type": "function"
    },
    {
      "constant": true,
      "inputs": [
        {
          "internalType": "address",
          "name": "_owner",
          "type": "address"
        }
      ],
      "name": "balanceOf",
      "outputs": [
        {
          "internalType": "uint256",
          "name": "",
          "type": "uint256"
        }
      ],
      "payable": false,
      "stateMutability": "view",
      "type": "function"
    },
    {
      "constant": true,
      "inputs": [
        {
          "internalType": "uint256",
          "name": "_tokenId",
          "type": "uint256"
        }
      ],
      "name": "ownerOf",
      "outputs": [
        {
          "internalType": "address",
          "name": "",
          "type": "address"
        }
      ],
      "payable": false,
      "stateMutability": "view",
      "type": "function"
    },
    {
      "constant": false,
      "inputs": [
        {
          "internalType": "uint256",
          "name": "_tokenId",
          "type": "uint256"
        }
      ],
      "name": "mintToken",
      "outputs": [],
      "payable": false,
      "stateMutability": "nonpayable",
      "type": "function"
    },
    {
      "constant": false,
      "inputs": [
        {
          "internalType": "address",
          "name": "_to",
          "type": "address"
        },
        {
          "internalType": "uint256",
          "name": "_tokenId",
          "type": "uint256"
        }
      ],
      "name": "approve",
      "outputs": [],
      "payable": false,
      "stateMutability": "nonpayable",
      "type": "function"
    },
    {
      "constant": false,
      "inputs": [
        {
          "internalType": "uint256",
          "name": "_tokenId",
          "type": "uint256"
        }
      ],
      "name": "takeOwnership",
      "outputs": [],
      "payable": false,
      "stateMutability": "nonpayable",
      "type": "function"
    },
    {
      "constant": false,
      "inputs": [
        {
          "internalType": "address",
          "name": "_to",
          "type": "address"
        },
        {
          "internalType": "uint256",
          "name": "_tokenId",
          "type": "uint256"
        }
      ],
      "name": "transfer",
      "outputs": [],
      "payable": false,
      "stateMutability": "nonpayable",
      "type": "function"
    }
  ],
  "bytecode": "0x608060405234801561001057600080fd5b50336000806101000a81548173ffffffffffffffffffffffffffffffffffffffff021916908373ffffffffffffffffffffffffffffffffffffffff160217905550610b9c806100606000396000f3fe608060405234801561001057600080fd5b50600436106100935760003560e01c806370a082311161006657806370a08231146101f557806395d89b411461024d578063a9059cbb146102d0578063b2e6ceeb1461031e578063c634d0321461034c57610093565b806306fdde0314610098578063095ea7b31461011b57806318160ddd146101695780636352211e14610187575b600080fd5b6100a061037a565b6040518080602001828103825283818151815260200191508051906020019080838360005b838110156100e05780820151818401526020810190506100c5565b50505050905090810190601f16801561010d5780820380516001836020036101000a031916815260200191505b509250505060405180910390f35b6101676004803603604081101561013157600080fd5b81019080803573ffffffffffffffffffffffffffffffffffffffff169060200190929190803590602001909291905050506103b7565b005b61017161051a565b6040518082815260200191505060405180910390f35b6101b36004803603602081101561019d57600080fd5b8101908080359060200190929190505050610524565b604051808273ffffffffffffffffffffffffffffffffffffffff1673ffffffffffffffffffffffffffffffffffffffff16815260200191505060405180910390f35b6102376004803603602081101561020b57600080fd5b81019080803573ffffffffffffffffffffffffffffffffffffffff16906020019092919050505061058b565b6040518082815260200191505060405180910390f35b6102556105d4565b6040518080602001828103825283818151815260200191508051906020019080838360005b8381101561029557808201518184015260208101905061027a565b50505050905090810190601f1680156102c25780820380516001836020036101000a031916815260200191505b509250505060405180910390f35b61031c600480360360408110156102e657600080fd5b81019080803573ffffffffffffffffffffffffffffffffffffffff16906020019092919080359060200190929190505050610611565b005b61034a6004803603602081101561033457600080fd5b8101908080359060200190929190505050610817565b005b6103786004803603602081101561036257600080fd5b8101908080359060200190929190505050610a40565b005b60606040518060400160405280600b81526020017f4e6f6465416e64436f6465000000000000000000000000000000000000000000815250905090565b6103c081610524565b73ffffffffffffffffffffffffffffffffffffffff163373ffffffffffffffffffffffffffffffffffffffff16146103f757600080fd5b8173ffffffffffffffffffffffffffffffffffffffff163373ffffffffffffffffffffffffffffffffffffffff16141561043057600080fd5b80600560003373ffffffffffffffffffffffffffffffffffffffff1673ffffffffffffffffffffffffffffffffffffffff16815260200190815260200160002060008473ffffffffffffffffffffffffffffffffffffffff1673ffffffffffffffffffffffffffffffffffffffff168152602001908152602001600020819055508173ffffffffffffffffffffffffffffffffffffffff163373ffffffffffffffffffffffffffffffffffffffff167f8c5be1e5ebec7d5bd14f71427d1e84f3dd0314c0f7b2291e5b200ac8c7c3b925836040518082815260200191505060405180910390a35050565b60006103e8905090565b60006003600083815260200190815260200160002060009054906101000a900460ff1661055057600080fd5b6002600083815260200190815260200160002060009054906101000a900473ffffffffffffffffffffffffffffffffffffffff169050919050565b6000600160008373ffffffffffffffffffffffffffffffffffffffff1673ffffffffffffffffffffffffffffffffffffffff168152602001908152602001600020549050919050565b60606040518060400160405280600481526020017f4e41435500000000000000000000000000000000000000000000000000000000815250905090565b600033905060008390506003600084815260200190815260200160002060009054906101000a900460ff1661064557600080fd5b61064e83610524565b73ffffffffffffffffffffffffffffffffffffffff168173ffffffffffffffffffffffffffffffffffffffff16141561068657600080fd5b600073ffffffffffffffffffffffffffffffffffffffff168173ffffffffffffffffffffffffffffffffffffffff1614156106c057600080fd5b60018060008473ffffffffffffffffffffffffffffffffffffffff1673ffffffffffffffffffffffffffffffffffffffff16815260200190815260200160002060008282540392505081905550806002600085815260200190815260200160002060006101000a81548173ffffffffffffffffffffffffffffffffffffffff021916908373ffffffffffffffffffffffffffffffffffffffff16021790555060018060008373ffffffffffffffffffffffffffffffffffffffff1673ffffffffffffffffffffffffffffffffffffffff168152602001908152602001600020600082825401925050819055508073ffffffffffffffffffffffffffffffffffffffff168273ffffffffffffffffffffffffffffffffffffffff167fddf252ad1be2c89b69c2b068fc378daa952ba7f163c4a11628f55a4df523b3ef856040518082815260200191505060405180910390a350505050565b600061082282610524565b905060003390508173ffffffffffffffffffffffffffffffffffffffff168173ffffffffffffffffffffffffffffffffffffffff16141561086257600080fd5b82600560008473ffffffffffffffffffffffffffffffffffffffff1673ffffffffffffffffffffffffffffffffffffffff16815260200190815260200160002060008373ffffffffffffffffffffffffffffffffffffffff1673ffffffffffffffffffffffffffffffffffffffff16815260200190815260200160002054146108ea57600080fd5b60018060008473ffffffffffffffffffffffffffffffffffffffff1673ffffffffffffffffffffffffffffffffffffffff16815260200190815260200160002060008282540392505081905550806002600085815260200190815260200160002060006101000a81548173ffffffffffffffffffffffffffffffffffffffff021916908373ffffffffffffffffffffffffffffffffffffffff16021790555060018060008373ffffffffffffffffffffffffffffffffffffffff1673ffffffffffffffffffffffffffffffffffffffff168152602001908152602001600020600082825401925050819055508073ffffffffffffffffffffffffffffffffffffffff168273ffffffffffffffffffffffffffffffffffffffff167fddf252ad1be2c89b69c2b068fc378daa952ba7f163c4a11628f55a4df523b3ef856040518082815260200191505060405180910390a3505050565b6000809054906101000a900473ffffffffffffffffffffffffffffffffffffffff1673ffffffffffffffffffffffffffffffffffffffff163373ffffffffffffffffffffffffffffffffffffffff1614610a9957600080fd5b60018060003373ffffffffffffffffffffffffffffffffffffffff1673ffffffffffffffffffffffffffffffffffffffff16815260200190815260200160002060008282540192505081905550336002600083815260200190815260200160002060006101000a81548173ffffffffffffffffffffffffffffffffffffffff021916908373ffffffffffffffffffffffffffffffffffffffff16021790555060016003600083815260200190815260200160002060006101000a81548160ff0219169083151502179055505056fea265627a7a723158205f670780a027c89d69209ef4874d1e0d9876b5d0460b7c9347e6b207c8ff506064736f6c63430005100032",
  "source": "pragma solidity ^0.5.0;\n\n/*\n*    Simple Example of an unique non fungible ERC-721 token \n*    https://medium.com/crypto-currently/the-anatomy-of-erc721-e9db77abfc24\n*/\n\n\ncontract SimpleUnique {\n    \n    address owner;\n    mapping( address => uint ) private balances;                                /* wieviele Tokens hat die Adresse? */\n    mapping( uint256 => address ) private tokenOwners;                          /* wer hat das Token x ? */\n    mapping( uint256 => bool ) private tokenExists;                             /* gibt es das Token x ja/nein */\n    mapping( address => mapping ( uint256 => uint256 ) ) private ownerTokens;   /* welche Tokens sind auf dieser Adresse? */\n    mapping( address => mapping (address => uint256 )) allowed;                  /* darf sich das Token holen */\n    \n    \n    constructor() public {\n        owner = msg.sender;\n    }\n    \n    \n    function name() public pure returns (string memory) {\n        return \"NodeAndCode\";\n    }\n    \n    function symbol() public pure returns (string memory) {\n        return \"NACU\";\n    }\n    \n    function totalSupply() public pure returns (uint256) {\n        return 1000;\n    }\n \n \n    function balanceOf(address _owner) public view returns (uint) {\n        return balances[_owner];\n    }\n    \n    \n    function ownerOf(uint256 _tokenId) public view returns (address) {\n        require(tokenExists[_tokenId]);\n        \n        return tokenOwners[_tokenId];\n    }\n    \n    \n    function mintToken(uint256 _tokenId) public {\n        require( msg.sender == owner );\n        \n        balances[msg.sender] += 1;\n        tokenOwners[_tokenId] = msg.sender;\n        tokenExists[_tokenId] = true;\n    }\n    \n    \n    function approve(address _to, uint256 _tokenId) public {\n        require( msg.sender == ownerOf(_tokenId) );\n        require( msg.sender != _to );\n        \n        allowed[msg.sender][_to] = _tokenId;\n        emit Approval(msg.sender, _to, _tokenId);\n    }\n    \n    \n    function takeOwnership(uint256 _tokenId) public {\n        address oldOwner = ownerOf(_tokenId);\n        address newOwner = msg.sender;\n        \n        require( newOwner != oldOwner );\n        require( allowed[oldOwner][newOwner] == _tokenId );\n        balances[oldOwner] -= 1;\n        tokenOwners[_tokenId] = newOwner;\n        balances[newOwner] += 1;\n        emit Transfer(oldOwner, newOwner, _tokenId);\n    }\n    \n    /* bislang nicht im Einsatz \n    function removeFromTokenList(address _owner, uint256 _tokenId) private {\n        for(uint256 i = 0 ; ownerTokens[_owner][i] != _tokenId ; i++ ) {  \n            ownerTokens[_owner][i] = 0;\n        }\n    }\n    */\n    \n    function transfer( address _to, uint256 _tokenId ) public {\n        address currentOwner = msg.sender;\n        address newOwner = _to;\n        \n        require( tokenExists[_tokenId] );\n        require( newOwner != ownerOf(_tokenId) );\n        require( newOwner != address(0) );\n        \n        balances[currentOwner] -= 1;\n        tokenOwners[_tokenId] = newOwner;\n        \n        balances[newOwner] += 1;\n        emit Transfer(currentOwner, newOwner, _tokenId);\n    }\n    \n    \n    event Transfer(address indexed _from, address indexed _to, uint256 _tokenId);\n    \n    event Approval(address indexed _owner, address indexed _approved, uint256 _tokenId);\n}\n",
  "sourcePath": "/home/geth2019/erc721/contracts/SimpleUnique.sol",
  "compiler": {
    "name": "solc",
    "version": "0.5.16+commit.9c3226ce.Emscripten.clang"
  },
  "schemaVersion": "3.2.1",
  "updatedAt": "2020-07-08T15:43:26.883Z",
  "networkType": "ethereum",
  "devdoc": {
    "methods": {}
  },
  "userdoc": {
    "methods": {}
  }
}